:020000040800F2
:1000000000000220019C00084D9C0008AD990008EA
:10001000C1990008D5990008E9990008000000007E
:1000200000000000000000000000000059970008D8
:100030004D9C000800000000C5970008F19B0008D7
:100040004D9C00084D9C00084D9C00084D9C0008EC
:100050004D9C00084D9C00084D9C00084D9C0008DC
:100060004D9C00084D9C00084D9C00084D9C0008CC
:100070004D9C00084D9C00084D9C00084D9C0008BC
:100080004D9C00084D9C00084D9C0008000000009D
:100090000000000000000000000000004D9C00086F
:1000A0004D9C00084D9C00084D9C00084D9C00088C
:1000B0004D9C00084D9C00084D9C00084D9C00087C
:1000C0004D9C00084D9C00084D9C00084D9C00086C
:1000D0004D9C00084D9C00084D9C0008000000004D
:1000E0004D9C00084D9C00084D9C0008000000003D
:1000F0000000000000000000000000004D9C00080F
:10010000000000004D9C00084D9C00084D9C00081C
:1001100000000000000000000000000000000000DF
:100120004D9C00084D9C00084D9C00084D9C00080B
:100130004D9C0008000000000000000000000000CE
:100140000000000000000000000000004D9C0008BE
:100150004D9C00084D9C00084D9C00084D9C0008DB
:100160004D9C00084D9C00080000000000000000AD
:10017000000000000000000000000000000000007F
:10018000000000004D9C000800000000000000007E
:100190004D9C00084D9C000810B5054C237833B9E0
:1001A000044B13B10448AFF300800123237010BD4A
:1001B000240B00200000000084C90108084B10B582
:1001C0001BB108480849AFF300800848036803B929
:1001D00010BD074B002BFBD0BDE81040184700BFF7
:1001E0000000000084C90108280B0020140B002027
:1001F00000000000154B002B08BF134B9D46A3F5D4
:10020000803A00218B460F461348144A121A0BF00D
:10021000E3FB0F4B002B00D098470E4B002B00D078
:1002200098470020002104000D000D48002802D04E
:100230000C48AFF300800BF087FB2000290009F089
:1002400079FE0BF0E5F900BF000008000000022075
:100250000000000000000000240B0020C00D002062
:10026000000000000000000080B500F011F810F060
:10027000FF0F02D109F056FAFCE700F010F810F079
:10028000FF0F02D0172000F011F8182000F00EF830
:1002900080B509F06BFB012818BF002080BD80B538
:1002A00009F072FB00F00200400880BD80B50449EF
:1002B000044A79441144486709F0A8FA80BDC04651
:1002C00062080018F8FCFFFF80B500F001F880BD5F
:1002D00070B5164E044616487E44851909F04EFB4B
:1002E0000146284600F03EF81248851909F052FBF5
:1002F0000146284600F036F80F482168304400F0E7
:1003000031F803F00BF910F0FF0F09D003F00DF9ED
:1003100010F0FF0F04D009F03DFB09F077FA70BD33
:1003200009F02CFB09F072FA70BDC0463C080018B9
:10033000C81001E8F81001E8281101E810B50748D5
:10034000074978440C1809F019FB0146204600F0D3
:1003500009F809F013FB09F059FA10BDD20700188B
:10036000480F01E880B50A4601460348034B78442C
:10037000184404F06DFA80BDA6070018844A01E80D
:1003800080B500F001F880BD70B5164E04461648E1
:100390007E44851909F0F2FA01462846FFF7E2FF8C
:1003A0001248851909F0FCFA01462846FFF7DAFFE2
:1003B0000F4821683044FFF7D5FF03F0AFF810F085
:1003C000FF0F09D003F0B1F810F0FF0F04D009F0CF
:1003D000E7FA09F01BFA70BD09F0D0FA09F016FA35
:1003E00070BDC04684070018480F01E8581101E8A5
:1003F000881101E8B0B50B4C0B487C44051903F09B
:1004000045FB03F077FB686D03F084FB03F096FB7C
:1004100003F0A0FB062009F04BF90448204402F049
:1004200091FEC0461A070018F8FCFFFF18FEFFFFF8
:1004300080B518301CBF0068B0F1020012D00078FF
:10044000113803280BD8DFE800F00202020500F0A3
:100450004BF880BD09F07CF900F01CF880BD162037
:10046000FFF724FF00F000F810B50748074978446B
:100470000C1807490144204600F00CFA0146002000
:100480008860204600F01CFAA60600180CFEFFFF4C
:10049000289901E810B582B004461CB314F1440F4A
:1004A00018BF14F1400F1DD02068D4E9102103F0CB
:1004B00051F814F1280F15D014F12C0F18BF14F1B6
:1004C000300F0FD014F1340F18BF14F1380C09D0CD
:1004D00004F128030FCBDCF80040009403F052F83D
:1004E00002B010BDFFF7C0FF10B50D480D497844AC
:1004F0000844406A90B10C490C4AC06979441144DF
:1005000003F06EFA0446002C08D007D0E0682830CB
:1005100009F0C4F8206909F015F910BDFFF7A4FF30
:100520002606001818FEFFFF18060018F89B01E8C1
:10053000B0B50446012009F0BBF80546204600F09E
:100540000DF80446284609F0B3F82046B0BD80B542
:1005500002F084F904F01AFC80BDC046B0B505462F
:100560001848194978440144D1E9090468B1174988
:10057000174AC0697944114403F032FAFDB10028EA
:100580001CBF296801611AD0C560C4B11148104967
:1005900078440144E06903F023FA05467DB12869F7
:1005A00009F0D0F8204602F037FF0B480B49002D28
:1005B00078440844C0F808411CBFE868B0BDFFF7A4
:1005C00053FFC046B005001818FEFFFFA005001835
:1005D000F89B01E88405001864050018F8FCFFFF8B
:1005E0007047C04680B518301CBF0068B0F10200EB
:1005F00012D00078113803280BD8DFE800F002028F
:10060000020500F00BF880BD09F0A2F8FFF742FFE9
:1006100080BD1620FFF74AFEFFF726FF10B50C48F5
:100620000C4978440844406A00281CBFC469002C67
:100630000CD0207D2821002818BF6821E0680844DC
:1006400009F02CF8206909F07DF810BDFFF70CFFC8
:10065000F204001818FEFFFF70B5054601200C4695
:1006600009F026F80021002C0646284608BF012183
:1006700000F006F80446304609F01AF8204670BD2E
:10068000B0B5124A124B7A441344D3E9092442B15B
:10069000D269CAB111F0FF0F1175A8B10168C2E9A2
:1006A0000301002C1CBFE569002D0DD0286909F05D
:1006B00049F8204602F0B0FE06480749784408444D
:1006C000C0F80841E868B0BDFFF7CEFE8E04001800
:1006D00018FEFFFF58040018F8FCFFFF7047C046E3
:1006E000B0B582B00A4C0B487C442044816B00209A
:1006F000019001A802F0A8FB0748019D044408F0FE
:10070000A7F902F09DF9C4F8085102B0B0BDC04687
:100710002C04001818FEFFFFF8FCFFFF80B582B024
:100720001120FFF7C3FDC046B0B5012008F0C0FF9F
:1007300004460948094978440D18696A284600F0BA
:100740000FF8284600F030F84FF0805000F046F8DF
:10075000204608F0ADFFB0BDDE03001818FEFFFF15
:1007600010B50C4681698C4208BF10BDC068C8B185
:100770008068806802F014FE01469CB1206900E0A8
:10078000896879B18A6822B10A695AB112698242CC
:10079000F6DAE06A30B102F023FE606A20F0200051
:1007A000606210BDFFF760FEB0B50446012008F09E
:1007B0007FFF0546E06878B1D0E90221906802F039
:1007C000BFFD002808BFA069A062204602F078FDA6
:1007D000284608F06DFFB0BDFFF746FE80B54FF626
:1007E000FF710022C6F2BF11084208BF012212B1F8
:1007F00008F08AFF80BD0920FFF758FDF0B581B0F1
:10080000064615460C4686B194B1304600F070F8A5
:100810000746204600F06CF803463046394622462B
:10082000009500F095F801B0F0BD0C48784401E067
:100830000748784407490C1807490144204600F04E
:1008400029F8014600208860204600F039F8C046AB
:10085000E20200180CFEFFFF189401E8E8020018FD
:1008600080B520B14168C9698969884780BDFFF7B3
:10087000FBFD0022884208BF01221046704780B568
:1008800000F01CFF80BD80B5D0E90221104601F0C8
:100890001DFC80BD70B50C46204604F007FB0646E3
:1008A00004F00EFB314605460AF024FE002D1FBF62
:1008B0000820C5E90004284670BDFFF7D5FDC046F5
:1008C000B0B5084D08487D444419204603F0A6FF02
:1008D0000648284403F0A2FF204603F09FFF15209E
:1008E000FFF7E4FC4E020018481701E8E81701E89A
:1008F00010B500281CBF406800281ED010490469AC
:10090000104A79442046114400F0A8F900281CBF81
:10091000002010BD0C480D4978440144204600F0E9
:10092000A9FA00281CBF406B002806D08168002966
:100930001CBFC06810BD00F0BBFAFFF795FDC046B4
:1009400012020018D89401E8FC010018089501E88B
:100950002DE9F0411C4600291546A8BF002C42DBBA
:10096000DDF81880B8F1FF3F3DDD38B3836801EB57
:1009700008029A4224DC0DB3AB6804EB08029A42E9
:1009800021DC002818BF002D18D047686A689742FC
:100990001CD100F049F806462846214600F044F8EC
:1009A00001468E4208BFBDE8F0813FB1F86808FB00
:1009B00000F2304600F045F8BDE8F081FFF754FD45
:1009C0001648784411E0134878440EE00D4D0E4867
:1009D0007D4444190D4841192046FFF75BFF01464D
:1009E0000B4828440AE00E48784407490C180A4985
:1009F00001442046FFF74EFF014600208860204654
:100A0000FFF75EFF440100180CFEFFFF789401E839
:100A1000780F01E84C010018489401E852010018D1
:100A20002C0100188068704780B500281CBF426800
:100A3000002A04D0D2680C3001FB020080BDFFF711
:100A400013FD80B503460020B2F1FF3FC8BF01206F
:100A500070B18B429CBF9818814204D20846194657
:100A60000AF04DFD80BD084619460AF046FD80BDDE
:100A70000820FFF71BFCC04610B50748074978441B
:100A80000C18074901442046FFF704FF01460020E7
:100A900088602046FFF714FF960000180CFEFFFF49
:100AA000A89401E810B500281CBF4068002818D0A1
:100AB0000D4904690D4A79442046114400F0CEF8EE
:100AC00000281CBF012010BD09480A497844014490
:100AD000204600F0CFF900281FBF406B0028806837
:100AE00010BDFFF7C1FCC0465E000018D89401E8B5
:100AF00048000018089501E870B50F4E04460F48ED
:100B00000F497E4430443144FFF7C4FE05460D488A
:100B100010228119284606F09CFA20462946012217
:100B2000002300F06DF808488119284605F02EFCD6
:100B3000284601F03FF870BD120000180CFEFFFFC0
:100B4000189701E8D82001E8381D01E880B528B1E0
:100B50004268D26993690022984780BDFFF784FC00
:100B600080B5C06A002805D004D04168C9694969C8
:100B7000884780BDFFF778FCF0B581B005460F4887
:100B80000F4F0E46144678443918304600F04BFAA1
:100B9000002802BF002001B0F0BD0A48784439188F
:100BA000304602F01DFF38B1EA6AC16A104622469B
:100BB00006F028FF01B0F0BDFFF756FC8EFFFF17CF
:100BC000189A01E878FFFF17C06A7047704780B530
:100BD000C06A002805D004D04168C969496A8847BD
:100BE00080BDFFF741FC80B5C06A002805D004D065
:100BF0004168C969896A884780BDFFF735FCC046EE
:100C000010B5C06A0C4600280FD00ED04168C969E3
:100C1000D1F82CC02146E0473CB10548054978444D
:100C20000144204605F0B2FB10BDFFF71DFCC04695
:100C3000F6FEFF17382101E880B50648064A7844D9
:100C400002440846114600F009F8002818BF0120A8
:100C500080BDC046D6FEFF17D89401E880B50028B5
:100C600008BF80BD04D042688A4218BF002080BD02
:100C7000FFF7FAFB70B50F4E04460F480F497E444C
:100C800030443144FFF706FE05460D481022811915
:100C9000284606F0DEF9204629460122002300F00E
:100CA0004FF808488119284605F070FB284600F0E7
:100CB00081FF70BD96FEFF170CFEFFFF189701E83D
:100CC000C81F01E8381D01E880B5002200F006F8D1
:100CD00080BD80B5FFF744FF80BDC046F0B581B050
:100CE00006461448144F0D461446784439182846D1
:100CF000FFF7B4FFC0B1114878443918284600F016
:100D0000B9F8A0B1316B026B91420DD1416B706BA0
:100D100006F0F0FD10F0FF0F06D0304629462246BF
:100D2000FFF72AFF01B0F0BD002001B0F0BDFFF7D2
:100D30009BFBC0462AFEFF17089501E81CFEFF1723
:100D40002DE9F04F81B005468B46E86A002859D05E
:100D500058D04168C969CF6A5946B847BBF1000FFE
:100D600050D02A4C2A487C440119584605F00EFB05
:100D70002A484FF000090C2600EB040A284800EB33
:100D80000408002401E008360134286BE11784428E
:100D90004FF0000028BF0120B1F1FF3F4FF00001EC
:100DA000C8BF0121B9EBE47F08BF014601BB1CB1FC
:100DB0005846514605F0EAFA686B18B380688442D9
:100DC000E1DA686BF0B181688C421DD28159304400
:100DD000476851EA0700D6D0584606F0F1FA58465F
:100DE000414605F0D3FA5846394606F0E9FACAE713
:100DF0000848094978440144584605F0C7FA01B04B
:100E0000BDE8F08FFFF730FB00F052F8AEFDFF17A2
:100E1000282001E820FDFF17682001E8C81A01E832
:100E2000482001E8B0B504461048114A784402440D
:100E300008461146FFF712FF0021054600F028FC86
:100E400010F0FF0F0DD175B1206B296B884208D1CE
:100E5000696B606B06F04EFDC0B2002818BF012020
:100E6000B0BD0020B0BDFFF7FFFAC046E8FCFF1799
:100E7000089501E810B598B1FFF7F0FE002818BFFB
:100E800010BD0848084978440C1808490144204618
:100E9000FFF700FD0146002088602046FFF710FDA7
:100EA000002010BD8EFCFF170CFEFFFF089B01E821
:100EB00010B50748074978440C18074901442046F3
:100EC000FFF7E8FC0146002088602046FFF7F8FCA9
:100ED0005EFCFF170CFEFFFF489401E82DE9F0438C
:100EE00081B0054614468946002D60D02846FFF79C
:100EF000D9FD012867D12846FFF7FAFC8046B8F1F2
:100F0000010F4BDAA8684044002847DBB4F1FF3FEB
:100F100047DDA8684044844243DC33483349784481
:100F20000144284600F07FF80746D7B1B9F1000F19
:100F30001DD007F10C06002500E00135A54225DA99
:100F4000B868854228D256F825000028F5D00CD084
:100F50004168C9690A694946904710F0FF0FECD013
:100F600016E0012C12DBFFF787FDFFF77DFA07F192
:100F70000C00002500E00135A54207DAB9688D4272
:100F80000AD250F825100029F5D101E0A8F1010599
:100F9000284601B0BDE8F083FFF78AFF1748784480
:100FA00001E01348784413490C18134904E017482A
:100FB000104978440C18164901442046FFF76AFC92
:100FC000014600200BE00E4D0A487D4444190D48AF
:100FD00041192046FFF75EFC01460B482844886013
:100FE0002046FFF76DFCC046F6FBFF17989501E819
:100FF00070FBFF170CFEFFFF689501E876FBFF17FB
:101000004AFBFF17389501E8C80F01E862FBFF179C
:10101000189401E880B500F025FB10B100F02CFB1E
:1010200080BDFFF721FA10B50446002C0FD018BF81
:1010300000290ED06268914204D00846114602F0A1
:101040001BFB00E00120C0B2002808BF0446204678
:1010500010BDFFF709FAC04670B505460D480E4EA3
:101060000C46784431182046FFF7F8FD002804BFED
:10107000002070BD09482D78784431182046FFF7CC
:10108000F9FE28B1017800208D4208BF012070BD13
:10109000FFF7EAF9B2FAFF17C89501E89CFAFF17C3
:1010A0000078704710B5047800F006F80146204635
:1010B00000F030F810BDC04610B510491048794412
:1010C0000144D1F80811B1B10E4979440844D0F86F
:1010D000F40080B1017F09B9016951B90A4C0B498B
:1010E0007C44214406F0CCF909492144FFF7C2FEB3
:1010F0000146084610BDFFF7B7F9C04656FAFF177C
:10110000F8FCFFFF4AFAFF1734FAFF178C4E01E88C
:10111000C89E01E870B50C460A4905460A480B4AC4
:10112000794408441144FFF7B5FB2946064604F00C
:101130008DFA304647214FF0FF32234604F04CFB36
:1011400070BDC046F4F9FF170CFEFFFFB89C01E824
:10115000B0B505780C46FFF7AFFF0246284621469A
:1011600000F002F8B0BDC0462DE9F04381B00E4654
:1011700081460020694690460090304604F0AEFC5F
:101180000746BDB2592D06D3642D17D0672D06D062
:10119000782D1FD107E0582D05D0472D0CD1009890
:1011A000002817DC0AE0009AA5F12101484604F066
:1011B00045FD01B0BDE8F083442D0BD1B8F1000F1F
:1011C00026D0D8F818200099484604F0D5FC01B084
:1011D000BDE8F0830F491048104A7944084411448F
:1011E000FFF758FB4946044604F030FA45B1009A2F
:1011F00020463946434604F0EFFA01B0BDE8F083DB
:1012000020463146424604F045FD01B0BDE8F0837A
:10121000FFF72AF93AF9FF170CFEFFFFB89C01E827
:10122000008840EA0040704770B505460D480E4EF4
:101230000C46784431182046FFF710FD002804BF03
:10124000002070BD09482D88784431182046FFF7EA
:1012500011FE28B1018800208D4208BF012070BD19
:10126000FFF702F9E2F8FF17F89501E8CCF8FF174D
:1012700080B5008800F001F880BDB0B504460120BB
:1012800000F006F82146054600F01AF82846B0BDE1
:1012900010B5084904460848084A794408441144EE
:1012A000621C00F0DBFB00281CBFC46010BDFFF710
:1012B000DBF8C0467AF8FF170CFEFFFFB89601E88E
:1012C00080B5C268002A0EDD00F11002012002E0A4
:1012D000931C11801A4601380028B8BF80BD002A2F
:1012E000F6D1FFF7C1F8FFF7E3FDC046B0B50D46F4
:1012F00004469DB12046294600F026F810F0FF0F65
:101300000CD00F480F49784401442846FFF78BFE64
:10131000054600F02DF810F0FF0F01D00020B0BD01
:101320005DB1A168AA680020914218BFB0BDE9680C
:10133000E2688A4208BF0120B0BDFFF795F8C046B9
:101340000EF8FF17289601E880B500280AD018BFCC
:10135000002907D006D04268496800208A4208BFA9
:10136000012080BDFFF780F8C06870478068704733
:1013700080B5002804BF012080BD05D04168C9693F
:101380000A690021904780BDFFF76EF8C0E902129C
:10139000704780B520B14168C969C968884780BD78
:1013A000FFF762F810B5B1F1FF3F0DDDC268914261
:1013B0000ADA002818BF103000EB410000281CBFDB
:1013C000008810BDFFF750F80748084978440C180A
:1013D000074901442046FFF75DFA01460020886076
:1013E0002046FFF76DFAC04648F7FF170CFEFFFFD7
:1013F000489401E82DE9F04381B00D468146002074
:10140000694690460090284604F068FB0746BEB245
:10141000592E06D3642E17D0672E06D0782E1AD1F7
:1014200007E0582E05D0472E0CD10098002812DC7A
:101430000AE0009AA6F12101484604F0FFFB01B042
:10144000BDE8F083442E06D10099484604F0FEFE24
:1014500001B0BDE8F0830F490F48104A79440844B1
:101460001144FFF717FA4946044604F063F946B100
:10147000009A20463946434604F0AEF901B0BDE873
:10148000F08320462946424604F004FC01B0BDE842
:10149000F083C046B8F6FF170CFEFFFFB89C01E8CA
:1014A00070B504460D480E4E0D4678443118284656
:1014B000FFF7D4FB002804BF002070BD0948784422
:1014C00031182846FFF7D6FC30B1016822680020A9
:1014D0008A4208BF012070BDFEF7C6FF6AF6FF17FB
:1014E000589601E856F6FF170068704710B5046873
:1014F000FFF7E2FD01462046FFF70CFE10BD10B5D8
:101500000468FFF7D9FD01462046FFF703FE10BD32
:10151000B0B505680C46FFF7CFFD024628462146C8
:10152000FFF722FEB0BDC046B0B50D46044605B378
:1015300020462946FFF708FF10F0FF0F19D00F488B
:101540000F49784401442846FFF76DFD0546FFF733
:101550000FFF10F0FF0F0CD16DB12069296900F069
:101560004AF810F0FF0F04D020462946FFF7BEFED0
:10157000B0BD0020B0BDFEF777FFC046D2F5FF1723
:10158000889601E8F0B581B00469D4B104F10C0586
:101590000020002608E000EB40174868C069426957
:1015A0000846904738440136A1688E420BDAA1689C
:1015B0008E420AD255F82610002900D0EBD1FEF752
:1015C00053FFFFF7D1FE01B0F0BDFFF771FC80B50E
:1015D000016941B1006950B18268511E914208D23F
:1015E00000EB8100C06800281CBF806880BDFEF74A
:1015F0003BFFFFF75DFC2DE9F04381B005460C464B
:1016000015B1D5F8088001E04FF000080CB1A068D2
:1016100000E00020804519D105F10C0904F10C0609
:10162000002700E00137474514DABDB1A8688742BA
:1016300016D29CB1A068874212D259F8270056F8FA
:10164000271000F025F810F0FF0FEBD1002001B0BB
:10165000BDE8F083012001B0BDE8F083FEF704FF90
:10166000FFF726FC80B500281CBF4068002801D089
:10167000406980BDFEF7F8FE80B5806800281CBF79
:101680000069002802D000F0BBF880BDFEF7ECFE38
:1016900080B5884202BF0122104680BD00284FF06D
:1016A000000218BF002905D030B14268D269126922
:1016B00090470246104680BDFEF7D6FE2DE9F04168
:1016C0000446002C00F087802068012100F440705F
:1016D000B1EB102F09D120684FF60041C0F2FF0195
:1016E0000840870A3846BDE8F081000AB0BB3C4894
:1016F0003C4978440D1802F0EFFAD5F80851064637
:10170000002D03D067D0D5F8108001E04FF002081B
:10171000002E60D03046294602F0F4FA002C5AD050
:10172000207800F0FE01002004294FF0000108BFDE
:10173000012129B9216801F44071B0EB112F2CD09F
:10174000002E48D03046294602F004FB002D1CBF75
:101750002869404502D0F5B3C5F81080002C20461A
:1017600018BF0120C8B32068022100F44070B1EB1B
:10177000102F07D120684FF60041C0F2FF0108404A
:10178000800A02E0204602F031FB02F009FB074626
:1017900002F02AFB3846BDE8F0811348134978442B
:1017A00008444769791C3A4641612046012101F00D
:1017B00090FB86B13046294602F0CCFA002D1CBFC2
:1017C000286940453FF48EAF002D1EBFC5F810803C
:1017D0003846BDE8F081FEF747FE0720FEF766FDBC
:1017E00022F4FF17F8FCFFFF76F3FF1798FEFFFFC8
:1017F00080687047704780B5FFF73EFF80BDC046E8
:10180000B0B50E4904460E480E4A794408441144C6
:10181000FFF740F81021054600F0F0F964B1606868
:10182000294600220023C069D0F82CC02046E0479A
:10183000284600F0BFF9B0BDFEF716FE0AF3FF1709
:101840000CFEFFFF189701E8B0B50A4904460A48A4
:101850000A4A794408441144FFF71CF81021054650
:1018600000F0CCF92169284602F0F4F8284600F08F
:10187000A1F9B0BDC2F2FF170CFEFFFF189701E8F7
:1018800080B5002818BF00291ED0D0F80CC0CB6846
:101890009C451CBF002080BD1031103003E0ACF12E
:1018A000020C04310430BCF1010F07DB002818BF23
:1018B000002909D003680A689342F0D00020BCF1E7
:1018C000010FB8BF012080BDFEF7CEFD10B5044664
:1018D0000848094A7844024408461146FFF7BEF911
:1018E000014619B9002C1CBF002010BD2046FFF78F
:1018F000C7FF10BD40F2FF17B89601E8704780B5EA
:10190000D0F80CE041F205510028C1F2055118BF92
:1019100010308C4609E043680CEB4C12AEF1040E1B
:10192000083002EBEC6282EA030CBEF1010F0FDB20
:1019300060B101EB4112BEF1030F02EBE1610268FD
:1019400081EA020104DB10F1040FE4D1FEF78CFD03
:1019500048F66530C5F658500CFB001080BD80B5C8
:1019600002468A4204BF012080BD0020002A08BF31
:1019700080BD00291CBF1046FFF782FF80BDC04616
:1019800070B505460C46E868B0F1FF3F21DDE86818
:10199000001B00281DDBB4F1FF3F1DDD174918486F
:1019A000184A794408441144224600F033F80646A8
:1019B000012C0CDBB06820B1B068E0B106F10C017D
:1019C00000E0002105F11000224600F03FF830460B
:1019D00070BD0F48784401E00B48784408490C1862
:1019E0000A4901442046FEF755FF01460020886061
:1019F0002046FEF765FFFFF75BFAC04672F1FF175E
:101A00000CFEFFFFE89601E83AF1FF17689501E840
:101A100040F1FF17F0B581B00D4614462846214627
:101A200003F076FA074603F04BFA3946064609F00A
:101A300061FD002E1EBF0820C6E90005002E03D060
:101A4000B460304601B0F0BDFEF70EFD80B5034630
:101A500008465200194609F050FD80BDF0B581B02E
:101A60000D4614462846214603F052FA074603F075
:101A700027FA3946064609F03DFD002E1EBF082014
:101A8000C6E90005002E03D0B460304601B0F0BDB9
:101A9000FEF7EAFC10B5002A18BF00281DD0C46864
:101AA000D368641AA34209DC00EB410000F1100185
:101AB00002F110001A46FFF7C9FF10BD0848094996
:101AC00078440C18084901442046FEF7E3FE01461D
:101AD000002088602046FEF7F3FEFEF7C5FCC046F6
:101AE00054F0FF170CFEFFFF489401E880B5B3F1F6
:101AF000FF3F1EDDD0F80CC063451ADC002A18DB5E
:101B0000C9B1D1F808E002EB030CF44511DC002B5D
:101B1000D8BF80BD79B1D1F808C0624509D200F1C3
:101B2000100C01EB42001A460C306146FFF78EFFA5
:101B300080BDFFF7BDF9FEF797FCC0462DE9F041E7
:101B400005460C46002D18BF002C19D01449154825
:101B5000154AD4F80880EF68794408441144FEF728
:101B600099FE07EBC801064600F048F830462946C2
:101B7000224600F053F8304600F01CF8BDE8F08132
:101B80000A48084978440C18094901442046FEF7E0
:101B900081FE0146002088602046FEF791FEC04687
:101BA000BCEFFF170CFEFFFF189701E890EFFF173F
:101BB000189401E8B0B505460E480F492C697844E1
:101BC0000844A968D0F80801814205D17CB1D4E964
:101BD00002014900814203DA204600F063FAB0BDF9
:101BE000204600F049FB0020A8602046B0BDFEF76B
:101BF0003BFCC04656EFFF17F8FCFFFF80B50A46D6
:101C00000449054B79441944D1F8E41005F021FA50
:101C100080BDC04610EFFF17F8FCFFFF2DE9F04F25
:101C20008BB00029069018BF002A00F02682079288
:101C3000CA6808461146FFF7A3FE002800F00C8290
:101C4000826883464FF000094FF0000A511E04924B
:101C50000891911E099100F10C01DFF82C040A9102
:101C6000DFF8281478440844039003E006982146DE
:101C700005F07AFA049A4C464D46594605E001EBC8
:101C80004503681CA3F80CA00546944231DA886825
:101C9000844280F0DF810A9830F814A00134BAF150
:101CA0007D0F12D194420ADA8868844280F0D28192
:101CB0000A9830F814007D2801D1013405E0164659
:101CC0000F4605F09FFB39463246BAF17B0F0BD128
:101CD00094420DDA8868844280F0BC810A9830F81A
:101CE00014007B2804D1013488688542C7D3B1E150
:101CF000013C4D4509DD0698A5EB090315464A460A
:101D00000E4605F0EFFA31462A46944204BF0BB066
:101D1000BDE8F08F601C90420DD08B68984280F037
:101D2000998101EB4000B0F80CA0BAF1300F02DB52
:101D3000BAF1390F05DD15460E4605F063FB314655
:101D40002A4604F108004FF0000B07460998A61C2C
:101D5000A04205D190460D4605F054FB2946424667
:101D60008868864280F076810BEB8B000FFA8AF34D
:101D700003EB40000023A0F1300B01EB4400B0F86E
:101D800010A00020BAF13A0FB8BF0120BAF12F0F0E
:101D9000C8BF0123034207D044F24023781C01341A
:101DA000C0F20F039B45D0DB07988068834501DBB9
:101DB00054E10137A7F10609914508DA88688145A1
:101DC00080F0488131F817A0BAF1200FF1D01FFA46
:101DD0008AF02C2833D109F10700A0F106089045BC
:101DE00008DA8B68984580F0358131F81030013081
:101DF000202BF2D0904505D114460D4605F002FB8C
:101E0000294622468868804580F024810A9830F867
:101E100018A0BAF12D0F16D108F10108904505D18F
:101E200014460D4605F0EEFA29462246886880459C
:101E300080F010810A9830F818A0012004E00020FA
:101E4000002605903FE000200590BAF1300F02DB3C
:101E5000BAF1390F05DD14460D4605F0D3FA2946CF
:101E600022460026089808F10109404505D114468C
:101E70000D4605F0C7FA294622468868814580F05C
:101E8000E98006EB86000FFA8AF303EB400000239B
:101E9000A0F1300601EB4800B0F80EA00020BAF126
:101EA0003A0FB8BF0120BAF12F0FC8BF0123034278
:101EB00009D044F24020C846C0F20F008642D1DB70
:101EC00001E009F1010991450ADA8868814580F04D
:101ED000C18001EB4900B0F80CA0BAF1200FF0D09E
:101EE00007988068834580F0B580079800EB8B00E9
:101EF000C4681FFA8AF03A2848D109F1070509F1A8
:101F000001090294CDF8049003E021F815A00135F1
:101F1000A146914507D1374614460E4605F072FAA0
:101F200031463E4622468868814580F093800A9873
:101F3000AF1F09F1010430F819A0BAF17D0F0CD1DF
:101F4000944227DA8868844280F084800A9830F8C6
:101F500014007D281ED1013414E0BAF17B0F11D199
:101F6000944207DA8868844274D20A9830F81400E0
:101F70007B28F0D0B14690460E4605F043FA314634
:101F80004E46424688688742BFD363E08B464FF097
:101F9000000817E08B4601998F4210DD7D1A0F462D
:101FA0002846FFF775F9029C8046B8F1000F53D020
:101FB000404659463A462B46FFF798FD02E0029C00
:101FC0004FF000081FFA8AF07D2818BF05F01AFAB2
:101FD000204602F0BDFE58B1204602F09BFE0546A9
:101FE00001F01EFBC368284641460022984709E0DD
:101FF000002C06D030D06068C069C1682046884790
:1020000000E0002003990028D1F8E45018BF0546ED
:1020100015B3E868059F09F10109341A3FB1069824
:10202000294604F0B3F9012CFFF624AE1EE6069E05
:10203000012C03DB3046214605F096F83046294650
:10204000069604F0A3F9002F3FF414AE002C3FF7DE
:102050000DAE0FE6FEF72CFFFEF706FA0C480D4911
:1020600078440C180C4901442046FEF713FC014645
:10207000002088602046FEF723FC08480549784484
:102080000C180749EFE7C046B0EEFF17F8FCFFFF5A
:10209000B4EAFF170CFEFFFFE89C01E896EAFF1781
:1020A000189401E870B5044674B1E5682846FFF756
:1020B000EFF8064646B104F1100006F110012A4679
:1020C000FFF7C4FC304670BDFEF7CEF970B505468B
:1020D00016480C461649002C78440844D0F8E40011
:1020E00008BF0446002D08BF0546002D18BF002C70
:1020F0001AD0E868E16801300844FFF7C9F8002108
:102100002A460646FFF7C6FC0A480B4978440A18D7
:10211000E9683046FFF7BEFCE8682246411C3046BD
:10212000FFF7B8FC304670BDFEF79EF93CEAFF179A
:10213000F8FCFFFF08EAFF17C81801E880B500F1B6
:10214000100C0CEB4203002B1FBF2CF81210511C7B
:102150000CEB4102002A03D000231380C16080BD34
:10216000FEF782F910B502EB010C510000F11003EB
:102170004FF0200E03E0A4F800E002310132624586
:1021800002DA5C18F7D108E003EB420100291FBF17
:1021900000220A80C0F80CC010BDFEF765F9F0B54A
:1021A00081B015460446A9B1CE6804F1100701F1CB
:1021B000100007EB450211463246FFF747FCA8190D
:1021C00007EB400100291FBF00220A80E06001B038
:1021D00018BFF0BDFEF748F9F0B581B0069F044680
:1021E0001D4604F11006002D11DD31B1886830B1B3
:1021F0008868C8B101F10C0002E0002000E0002076
:1022000000EB420006EB47012A46FFF71FFC781956
:1022100006EB400100291FBF00220A80E06001B0E8
:1022200018BFF0BDFEF720F9FEF742FE80B50A4662
:1022300018B1C16800F003F880BDFEF715F970B55C
:10224000064610460D46FFF723F8044696B1F0689F
:1022500050B17CB106F1100004F110012A46FFF7DD
:10226000F5FB2046E56070BD002C1FBF0020E0603C
:10227000204670BDFEF7F8F880B5D0E902210131A3
:102280009142A8BF80BD00EB4100103002D0002178
:10229000018080BDFEF7E8F880B508480849094A82
:1022A000784401440244C1F8E420074AD1F8E81018
:1022B00010441922FEF7A2FA80BDC04674E8FF1749
:1022C000F8FCFFFFFC0F01E8F84701E870B50C4689
:1022D0000A4905460A480B4A794408441144FEF766
:1022E000D9FA2946064603F025FA304647214FF031
:1022F000FF32234603F070FA70BDC0463CE8FF177A
:102300000CFEFFFFB89C01E870B504460D480E4E68
:102310000D46784431182846FEF7A0FC002804BF7B
:10232000002070BD0948784431182846FEF7A2FD08
:1023300030B10168226800208A4208BF012070BDC8
:10234000FEF792F802E8FF17489701E8EEE7FF175B
:102350000068704710B50468FEF7AEFE01462046DF
:10236000FFF7B4FF10BD10B50468FEF7A5FE0146E7
:102370002046FFF7ABFF10BDB0B505680C46FEF771
:102380009BFE024628462146FFF734F8B0BD0021E7
:102390000160704770B505460D480E4E0C467844F6
:1023A00031182046FEF75AFC002804BF002070BDFB
:1023B00009482D68784431182046FEF75BFD2CB1A2
:1023C000216800208D4208BF012070BDFEF74CF847
:1023D00076E7FF17789701E860E7FF17006820F0BD
:1023E0000040704780B582B00020019001A8FFF73F
:1023F000CEFF019802B080BD70B50B4E05460B486C
:102400000C467E44304400F017F8094982108B19BD
:10241000084918463144FFF7FDFA0246284621468E
:1024200000F012F870BDC04612E7FF1718FEFFFF5C
:102430000CFEFFFFA89701E880B507F0E9FA002835
:1024400008BF4FF4805080BD2DE9F041DFF8D08007
:10245000044634480F461646F84400EB0805324857
:1024600000EB08012846FEF715FAA0642F48404407
:10247000D0F80C114A1CC0F80C2141F0805040F0FB
:102480000D70A0602A48C4E9057600EB08062846CE
:102490003146FEF7FFF9E06128463146FEF7FAF9CA
:1024A0000821C4E90801234800EB08062846314604
:1024B000FEF7F0F90461A06228463146FEF7EAF91A
:1024C0000461E0621C4800EB08012846FEF7E2F9CF
:1024D000064600F03DF91948666300EB08012846FE
:1024E000FEF7D8F9064600F057F90220A6632061EE
:1024F000134800EB08012846FEF7CCF905461148C1
:10250000214600EB08022846FEF740FFE06928B1AB
:10251000A269294600F0A4F8BDE8F081FDF7A4FF08
:10252000BCE6FF170CFEFFFF089801E8F8FCFFFF70
:10253000389801E8689801E8989801E8C89801E897
:10254000F89801E8091D00E8B0B5014691F82400AB
:1025500010F0080F0AD0486A0D4A20F008004862BF
:102560000A487844104400F01DF8B0BD094D0A48EF
:102570007D444419094841192046FEF78BF901466C
:102580000748284488602046FEF79AF9B2E5FF170D
:1025900018FEFFFFA4E5FF170CFEFFFFD89701E828
:1025A000181001E8B0B582B00D460446002D1CBFDE
:1025B000E86A00281ED000F0E3FD10F0FF0F16D0EF
:1025C000012007F075F801902046294600F0A8FD8B
:1025D00020462946FEF7C4F800F0DEFD01462046FD
:1025E00000F0FBFD019807F063F802B0B0BD0320D6
:1025F000FDF75CFEFDF738FFB0B50446A069002882
:1026000008BFB0BD012007F053F80546A06948B1E6
:1026100002F0DAFD0020A061C4E90200284607F0BC
:1026200047F8B0BDFDF720FF80B50B490B4A794450
:102630001144D1F8081100291CBFC969002908D02C
:102640001FBF8A688260CA68C2601EBF09690161D3
:1026500080BDFDF709FFC046E6E4FF17F8FCFFFF69
:10266000F0B581B00C4617460546002C3DD03CD055
:102670006068C0698169204688470646AFB3B9687B
:102680003846FEF7D1F920F007006FF0020205F19D
:102690000803A0F1900183E807003846B968FEF707
:1026A000C3F9EA68C1170023801A4FF0000261F1F4
:1026B00000010029C8BF01238F2888BF01220029FB
:1026C00018BF1A469AB1E86800281FBFE168016484
:1026D00086624FF080711FBF41646FF0020101609C
:1026E00002211EBF416001B0F0BDFDF7BDFE132009
:1026F000FDF7DCFDB0B5084D08487D444419084895
:1027000041192046FEF7C6F801460648284488606D
:102710002046FEF7D5F8C0461AE4FF170CFEFFFF6F
:10272000389B01E8881801E880B5112000F0C8F84E
:102730000E20FDF7BBFDC0687047C1607047806820
:1027400070470069704780B5FFF74CFE80BD704749
:10275000F0B581B004460D480D4978440D180D4977
:102760000E1828463146FEF795F8002731460761D6
:10277000A0602846FEF78EF80761E060A1688860D7
:10278000D4E90201C86001B0F0BDC046BAE3FF174A
:102790000CFEFFFF689B01E8F0B581B004460D48D0
:1027A0000D4978440D180D490E1828463146FEF79C
:1027B00071F8002731460761A0602846FEF76AF8E5
:1027C0000761E060A1688860D4E90201C86001B0D7
:1027D000F0BDC04672E3FF170CFEFFFFC89B01E887
:1027E000F0B581B004699CB1A66804F10C0500271E
:1027F00003E0D1E9020188470137B7420CDAA0684B
:1028000087420BD255F827100029F2D1FDF72CFE94
:10281000D0E902120846904701B0F0BDFEF748FB30
:1028200010B50446606990B1FFF7DAFF606A0A49A3
:1028300040F001006062074878440844214600F0F7
:102840001FF8132000F03CF81220FDF72FFDFDF7D4
:102850000BFEC046DCE2FF1718FEFFFF80B50648FE
:10286000064978440844D0F8080100281CBFC06815
:1028700080BDFDF7F9FDC046B2E2FF17F8FCFFFF8F
:10288000B0B582B0044601200D4606F011FF01905C
:10289000A5B1284600F090FA606A854203D0284628
:1028A00000F054FA05E000F077FC0146204600F005
:1028B00094FC019806F0FCFE02B0B0BDFDF7D4FD1B
:1028C000B0B5C0B2113803280FD8DFE800F0020518
:1028D000080B06F029FFB0BD06F02AFFB0BD06F0D8
:1028E0002BFFB0BD06F02CFFB0BD084D08487D445D
:1028F0004419084841192046FDF7CCFF0146064817
:10290000284488602046FDF7DBFFC04626E2FF171B
:102910000CFEFFFFE89901E8581001E880B5034874
:1029200003497844084400F005F880BDF2E1FF1740
:1029300018FEFFFF70B504460F48104978440D1883
:1029400000F06AFCD5F80851002D284618BF012078
:1029500078B1012006F0ACFE064620462946FDF778
:10296000FFFE2046002100F038FC304606F0A0FEB5
:1029700070BD0420FDF79AFCD8E1FF17F8FCFFFFBB
:10298000F0B581B00C46054600F05AF8002C1CBF8B
:102990002069002847D02549254A79441144D1F8B7
:1029A0008020C96FD0E9066787EA020071400843BA
:1029B000A86B04D1C068214600F04FF82AE0806877
:1029C000806800F054F80146012501E0896800257F
:1029D00049B3886888B1086928B3C2698069B04280
:1029E0004FF0000088BF0120BA424FF0000288BFBC
:1029F000012208BF0246002AE8D0204600F038F83D
:102A000015F0FF0F06D00B490B487944014491F8AB
:102A1000201009B101B0F0BD08497944084400F024
:102A20003FF801B0F0BDFDF71FFDC0467AE1FF178A
:102A3000F8FCFFFF0AE1FF1718FEFFFFFAE0FF179F
:102A400080B506F031FE0021022838BF012100299F
:102A500018BF80BD0020FDF729FC80B5024621B1DA
:102A60000846114600F004F880BDFDF7FDFC7047F4
:102A700080B582683AB18268002A1EBFC368D360FD
:102A8000002B0AD09A6000291CBFCA68002A04D013
:102A90009060C0E90212C86080BDFDF7E5FCC04649
:102AA000F0B581B00446206920B317498068174A01
:102AB000794480681144D1E91F6500F071FC074634
:102AC00012E000F069F886424FF000024FF0000378
:102AD00088BF01228D4288BF012308BF1346002B07
:102AE0001CBF0D460646BF6827B1B86820B13869DB
:102AF0000028E6D1FDF7B8FC204632462B4600F010
:102B000051FC01B0F0BDC04664E0FF17F8FCFFFFC8
:102B100010B50446FFF794FF04B3204600F02AF8EE
:102B20002069D8B10E490F4A79441144D1F8802068
:102B3000C96FC36980695A40484010430DD00A49A3
:102B40000A487944014491F82010002918BF10BDAB
:102B5000074979440844FFF7A3FF10BDFDF784FC43
:102B6000ECDFFF17F8FCFFFFD2DFFF1718FEFFFFB7
:102B7000C2DFFF1780B5816839B1816800291EBFA7
:102B8000C268CA60002A04D091600021C0E9021125
:102B900080BDFDF769FCC04610B50446FFF750FF45
:102BA000A06BD0E90221906800F012F800281EBF47
:102BB000C169806910BD0448044978440844D0F8CC
:102BC0008010C06F10BDC0465ADFFF17F8FCFFFF32
:102BD00080B5884204BF002080BD00281CBF00696A
:102BE00080BDFDF741FCF0B581B01D461646044698
:102BF000FFF726FFA06B80688068FFF738FF074665
:102C0000002104E0BF68002100F020F80121DFB1BD
:102C1000B86888B13869B8B1D0E90623B2424FF03C
:102C2000000288BF0122AB424FF0000388BF01239E
:102C300008BF1346002BE5D011F0FF0F1CBF204644
:102C400000F012F801B0F0BDFDF70EFC80B590F871
:102C50002020002A18BF80BD80F82110012180F8B3
:102C6000201002F061FB80BD80B501460348044A94
:102C70007844104400F006F880BDC046A4DEFF177B
:102C800018FEFFFFB0B582B0044601200D4606F0E5
:102C90000FFD0190BDB195F8240010F0200F0DD06C
:102CA000686A294620F0200068622046FDF758FD3A
:102CB00000F072FA0146204600F08FFA019806F003
:102CC000F7FC02B0B0BDFDF7CFFB70B506460120A2
:102CD0000C4606F0EDFC054644B1706BA168C06877
:102CE00000F006F8284606F0E3FC70BDFDF7BCFBDB
:102CF00080B5024621B10846114606F081FB80BD31
:102D0000FDF7B2FBB0B50546012006F0D1FC002D61
:102D100004461CBFA868002805D000F006F820462D
:102D200006F0C6FCB0BDFDF79FFB80B5816839B1E8
:102D3000816800291EBFC268CA60002A04D0916061
:102D40000021C0E9021180BDFDF78EFB10B50446DD
:102D50000A480B4978440844214600F013F8606A99
:102D600040F010006062206B002808BF10BD206B8F
:102D700010B100F013F810BDFDF776FBC0DDFF17B2
:102D800018FEFFFF80B539B1D1E90FC24B6C2C3072
:102D9000614600F035FA80BDFDF766FB80B5012184
:102DA00001738068002805D004D04168C969C969E9
:102DB000884780BDFDF758FBB0B50546012006F0F9
:102DC00077FC044602E00021FFF740FFA86BD0E942
:102DD00002219068FFF7FCFE0028F4D103E041686F
:102DE000C969C9698847686BD0E90221906800F019
:102DF0000FF8002802D0F2D1FDF736FBE86A00F0A8
:102E000012F8A86A00F00FF8204606F051FCB0BD99
:102E100080B5884204BF002080BD00281CBF006927
:102E200080BDFDF721FB80B5816839B1816800293B
:102E30001EBFC268CA60002A04D091600021C0E9A8
:102E4000021180BDFDF710FB70B5054606480C4623
:102E5000064978440E18FFF7F3FDD6F808012860FC
:102E6000C6F8084170BDC046C2DCFF17F8FCFFFF82
:102E700080B540B1017801F0FE010C2905D1043084
:102E80001CBF006880BDFDF7EFFA00F002F80830C3
:102E900080BD80B54168002918BF002808D0D1E95D
:102EA0000221806801FB0020033020F0030080BD78
:102EB000FDF7DAFA80B50431022202E0031D026058
:102EC00018460439042938BF80BD0028F6D1FDF723
:102ED000CBFA80B510B3037803F0FE0C0023BCF1ED
:102EE000040F08BF0123DBB9090241EA822C04E088
:102EF000BFF35F8F734508BF80BDD0F800E0BFF31C
:102F00005F8F5FFA8EF141EA0C0150E8003F734594
:102F1000EED140E80012002AF7D1E9E7FDF7A4FA64
:102F20000720FDF7C3F94FF4006070477047C046B3
:102F3000F0B581B0114F044611487F44C5191148BE
:102F4000C1192846FDF7A6FC06460F482146C219BE
:102F50003046FEF71BFA0D48C1192846FDF79AFCCA
:102F600031460546FFF748FA09486561C519FFF77C
:102F7000DDFF6069C5F8080101B0F0BDDADBFF17BD
:102F80000CFEFFFFF89801E87D2400E8589901E85D
:102F9000F8FCFFFF80B500F03AFA0420FDF786F94F
:102FA0002DE9F04381B0DFF8A09004462748884619
:102FB000F94400EB0905264800EB09072846394685
:102FC000FDF768FC064600F04DF828463946A66035
:102FD000FDF760FC064600F045F828463946E660F5
:102FE000FDF758FC064600F03DF81A48266100EB54
:102FF00009012846FDF74EFC06461748214600EB1E
:1030000009023046FEF7C2F9144800EB09012846D0
:10301000FDF740FC314642460746FFF715FA1048D7
:10302000A76100EB09012846FDF734FC00210122CD
:10303000054600F05DF8E5612046A16900F070F8F2
:1030400001B0BDE8F083C04664DBFF170CFEFFFF54
:10305000889901E8F89801E8952500E8589901E871
:10306000B89901E8F0B581B004460D480D4978449F
:103070000D180D490E1828463146FDF70BFC0027A8
:1030800031460761A0602846FDF704FC0761E06057
:10309000A1688860D4E90201C86001B0F0BDC046F3
:1030A000A6DAFF170CFEFFFF689801E880B54FF025
:1030B0008060FDF793FBFF2006F0FAFA06F032FB82
:1030C000FCE710B50446084601F0F6FB0246A0688E
:1030D0000B4603F0B3FF10BD80B538B14168002244
:1030E000C9698B694FF0FF31984780BDFDF7BCF986
:1030F000B0B504460848217306492261074A79445D
:1031000008441144FDF7C6FB2146054602F052F97A
:10311000A560B0BD16DAFF170CFEFFFFA89D01E801
:10312000B0B50C460546FFF78BFC002C1CBFA86809
:10313000002804D0A16AC06800F018F8B0BDFDF7FF
:1031400093F9704710B584694462406930B1FFF764
:10315000FBF9002C1CBFE069002801D1FDF784F9C0
:103160001120FFF7ADFB0E20FDF7A0F880B5024659
:1031700021B10846114600F033F980BDFDF774F91E
:10318000014600208A68002A18BF7047C9680029D4
:1031900008BF01207047C04680B502F0DFF888B153
:1031A000411E0E2984BF082080BD0B20DFE801F0FE
:1031B000120D08080808121212120E10120C0C0040
:1031C0000C2080BD002080BD0A2080BD0D2080BD68
:1031D0000E2080BD0E20FDF769F8B0B50D460446FF
:1031E000FDF7E2FA45F00800082818BFB0BDD4E9A1
:1031F000090188421CBF4FF08050FDF7EFFAB0BDC7
:10320000D0F800C061440160D0E9011C8918416018
:103210004CEB03018160704780B506F045FA002150
:10322000022838BF0121002908BF80BD0120FDF719
:103230003DF8B0B582B00D460446FFF7EDFF012022
:1032400006F036FA019085B395F8200040BB2D6951
:10325000002D1CBF2069002827D0E96AC068FFF74D
:1032600085FF686A40F02000686294F8200010B979
:103270002046FFF715FCFFF78FFF01462046FFF7BA
:10328000ACFF08E0019806F013FA044606F0C6FA0F
:10329000204606F00DFA95F8240010F0200FF1D129
:1032A000019806F005FA02B0B0BDFDF7DDF810B5E3
:1032B0000446616AFDF754FA2046FDF775FA10BD21
:1032C000B0B50446A56AA069854211D0E16899B1FC
:1032D000D1E90201C96800F01CF80028014618BFB6
:1032E000012159B1A84203D0204600F01DF8B0BD1D
:1032F000204600F006F8B0BDFDF7B6F80520FCF753
:10330000D5FF80B5C06B10B105F0EDFB80BDFDF7BA
:10331000ABF880B5814204BF002080BD00291CBFEE
:10332000086980BDFDF7A0F880B5C06B10B105F04D
:10333000B3FB80BDFDF798F880B5FDF735FA80BD89
:1033400080B5884204BF002080BD00281CBF0069F2
:1033500080BDFDF789F8F0B581B0044601201D4617
:10336000164684F82000206980B18068806800F0EB
:1033700017F8074604E0BF6832462B46FFF733FCD8
:1033800027B1B86820B138690028F4D1FDF76CF88E
:10339000002084F820002046FFF782FB01B0F0BD3A
:1033A0007047C04680B5DFF830C00C49006CFC4463
:1033B0006144D1E91FC183EA010E82EA0C0151EA9E
:1033C0000E0103D030B105F01BF980BD10B105F03E
:1033D00022F980BDFDF748F866D7FF17F8FCFFFF1C
:1033E00080B582683AB18268002A1EBFC368D36084
:1033F000002B0AD09A6000291CBFCA68002A04D09A
:103400009060C0E90212C86080BDFDF72DF880B55C
:1034100006F006F9FCE7C04680B5084A08497A4438
:103420000A44526A824208BF80BD064A7A44114467
:1034300048620846FFF744FF80BDC046F6D6FF1736
:1034400018FEFFFFE8D6FF1780B5012006F030F91F
:10345000002006F061F940F2112006F047F96FF004
:103460000C0000F00DF86FF00A0000F009F86FF0A2
:103470000B0000F005F86FF0090000F001F880BDC6
:1034800080B500210028B8BF0121002927D010F104
:103490002A0F01D100200DE000F10E010D291BD8EB
:1034A0000020DFE801F007070A0F1419191919079E
:1034B0001F191C1C06F020F980BD4FF4803006F067
:1034C0001BF980BD4FF4003006F016F980BD4FF4B3
:1034D000802006F011F980BD0920FCF7E7FE0920E5
:1034E000FCF7E4FE0E20FCF7E1FE80B506F0DCF808
:1034F0000021022838BF0121084680BD80B54FF069
:10350000A53006F083F980BD80B506F0BFF8002134
:1035100010F0020F08BF0121084680BD80B506F0FB
:103520002DFA00F40040C00B80BD80B506F026FAED
:1035300000F40070400A80BD80B548220023B2EB41
:10354000810F08BF012313B1FCF7A4FF80BD132036
:10355000FCF7ACFE80B582B08C460749034600926A
:103560000648074A7944084411441A46634601F064
:103570007BF902B080BDC046B0D5FF17844A01E890
:10358000B81101E880B584B0864606988C46074994
:10359000CDE90023074A6346029005487944084470
:1035A0001144724601F072F904B080BD78D5FF175E
:1035B000844A01E8381201E880B5074A07480849FB
:1035C000084B7A44104411441A440123C0F24003CA
:1035D000FFF7F2FF80BDC04652D5FF17344A01E81D
:1035E000E81201E8981301E87047C04680B5074A21
:1035F00007480849084B7A44104411441A440123EF
:10360000C0F24003FFF7F2FF80BDC0461ED5FF1792
:10361000344A01E8E81201E8181501E87047C0468D
:1036200080B5002822D01CBF406800281ED0DFF8DB
:1036300040C0016A0F4B0022FC4401F10C009C4485
:1036400001E00830013289B18B689A42A4BF0020A2
:1036500080BD8B689A4207D203686345F1D18968BF
:103660008A423CBF406880BDFDF722FCFCF7FCFEAF
:10367000DCD4FF17089E01E870B50C460546002C07
:1036800078D02069294600F07FF810F0FF0F1CBFAA
:10369000012070BD287E10F0800F1CBF207E10F02E
:1036A000800F58D0287EC62801D1012004E0297E51
:1036B0000020C72908BF01202F49304A794411440E
:1036C00000F078F8207E297E814244D12C482D4993
:1036D00078440E182869314600F082F905462069C1
:1036E000314600F07DF90446002D43D042D0686891
:1036F0002146C069026B2846904710F0FF0F2AD080
:103700006868C069C16928468847002832D031D02E
:103710004168C969096A88470546002C2AD029D022
:103720006068C069C16920468847002822D021D03E
:103730004168C969096A8847002D18BF002819D057
:10374000AA6A816A8A4204BF012070BD91B1087ED5
:1037500010F0200F01D0002070BD5AB1107E432818
:1037600004D1086A114600F05BF970BD1046FFF7FE
:1037700083FF70BDFCF778FE58D4FF17981601E858
:1037800044D4FF17189A01E870B50C460546002688
:1037900000E06D6A28460021FDF77AFF10F0FF0F68
:1037A00004D12DB1A86A8442F3D10126304670BD00
:1037B000FCF75AFEB0B50C4610F0FF0F18BFB0BDB5
:1037C00008480949002278440D1808490144284650
:1037D000FEF720F90146204604F04CF80146284641
:1037E000FDF76EF84ED3FF170CFEFFFF989501E82A
:1037F0002DE9F04F81B0904699468A46074618F069
:10380000FF0F25D0002F00F0CC807868C069816A56
:103810003846884710F0FF0F07D0BAF1000F00F0CC
:10382000C0806348634978440EE07868C069416AA3
:103830003846884710F0FF0F0AD0BAF1000F00F0A9
:10384000B0805948594978440144504602F09EFDE1
:1038500019F0FF0F04D0387A04F0B4FC014600E000
:10386000002119B1BAF1000F38D19AE0F8690021AE
:10387000FDF70EFF10F0FF0F17D1F869002800F0D8
:10388000908000F08E80416800224B46C969CE6A64
:103890005146B047BAF1000F00F0838046484749CF
:1038A00078440144504602F071FDB86990B1B8699E
:1038B000002876D0C06868B1BAF1000F71D0B9693C
:1038C000504602F063FD3E483C497844014450466E
:1038D00002F05CFDBAF1000F63D07969504602F046
:1038E00055FD386A002859D0BAF1000F59D0354833
:1038F000354978440144504602F048FD386A0028B2
:103900001CBF8668002E4CD0B06808B333483049DD
:1039100006F10C050024784401EB000B07E0416838
:1039200042464B46C969CF6A5146B8470134B06830
:1039300084422CDA1CB15046594602F027FDB0688B
:10394000844222D255F8240000282AD0E7D128E06A
:10395000386A30B3C468D4B11C481D4904F10C0660
:10396000002778440D1805E056F83710504602F04D
:103970000DFD0137A068874209DA1FB1504629467C
:1039800002F004FDA0688742EED3FDF791FA1148DA
:10399000114978440144504602F0F8FC01B0BDE8FA
:1039A000F08FFCF761FDC046CED2FF17F81C01E88E
:1039B000EED2FF17A82301E874D2FF17A81A01E876
:1039C0004AD2FF1722D2FF17181D01E8B2D1FF1704
:1039D000C81A01E882D1FF17581D01E8FED1FF1770
:1039E00010B598B1FDF71FFB002818BF10BD08489F
:1039F000084978440C18084901442046FCF74AFF5E
:103A00000146002088602046FCF75AFF002010BDC8
:103A100022D1FF170CFEFFFF089B01E80020704732
:103A200080B5A8B1D0F808C007E000EBCC029C46F6
:103A300052688A4204BF012080BDACF10103002B13
:103A4000BCBF002080BD82689342EED3FDF730FA00
:103A5000FCF70AFD70B5094E0C46054608480949B1
:103A600001227E4430443144FDF7D4FF024606482B
:103A7000D46081192846FEF7D1F870BDB2D0FF1787
:103A80000CFEFFFF989501E8181701E880B517486C
:103A900017497844084400F069F805F0B3FEFEF7D2
:103AA000CFFF6FF00C00002105F0E6FF6FF00B0078
:103AB000002105F0E1FF6FF00A00002105F0DCFFB6
:103AC0006FF00900002105F0D7FF6FF00400052119
:103AD00005F0D2FF4FF0FF30072105F0CDFF6FF06A
:103AE00001000E2105F0C8FF80BDC04682D0FF173F
:103AF0007C4A01E810B50548054978440C18204671
:103B000000F068F8204600F088F810BD1AD0FF17C2
:103B100068FEFFFFB0B504460648074978440D1813
:103B20002846FFF705FA00F07CF828462146FFF703
:103B300037FAB0BDF8CFFF1718FEFFFF80B5034876
:103B400003497844084400F082F880BDD2CFFF17C3
:103B50005CFEFFFF80B5034803497844084400F049
:103B60007DF880BDBACFFF1718FEFFFF80B501209A
:103B700005F09EFD002005F0CFFD40F2112005F07C
:103B8000B5FD6FF00C00FFF77BFC6FF00A00FFF74C
:103B900077FC6FF00B00FFF773FC6FF00900FFF785
:103BA0006FFC01F0FFFBFFF7AFFC10F0FF0F03D03D
:103BB000002005F04DFF80BD0448054978440844C5
:103BC00000F02CFE1020FCF771FBC04658CFFF1709
:103BD000082401E810B582B004460020CDE90000B9
:103BE000204600F011FD01A805F008FF04F014FCC8
:103BF00001986A46002105F00DFF04F00DFC0098C5
:103C00004FF428636061DDE900100A182046A261C4
:103C1000616900F002FD02B010BD80B500F01CFD2E
:103C200080BD80B500F084FE00F030FF00F05EFF44
:103C300000F0C2FF00F0DCFF00F0E8FF01F00AF83E
:103C400001F02CF8FEF728FB01F04CF880BD80B5A0
:103C500004F095FB04F09AFB80BDC04670B50446A5
:103C600004F060FC0A4E0B480B497E44304431445A
:103C7000FCF710FE05460948214682192846FDF743
:103C800085FB284604F096FC206404F0A9FC70BD76
:103C9000AACEFF170CFEFFFF48A001E8837A00E8D8
:103CA00080B50448044A78441044416705F03AFD61
:103CB000FCE7C0466ECEFF17F8FCFFFF7047704769
:103CC000704770470248034978440844806F704742
:103CD0004CCEFF17F8FCFFFF80B507490748794431
:103CE0000144896821B1064979440844806880BD4F
:103CF00000F096FA80BDC04636CEFF1798FEFFFF53
:103D00002CCEFF17B0B50D460446002D08BFB0BD40
:103D100003E005F0CDFCFEF701FE012005F0C8FC34
:103D2000A16869B1A168A9420CD0A16881B12A69D2
:103D300009699142EDDAA16851B12A690A61E8E79F
:103D4000A56002E0E1680131E16005F0B1FCB0BDC1
:103D5000FCF78AFB10B5002908BF10BD82688A42B3
:103D600009D1C1680129A1BFC1680139C16010BD75
:103D70000021816010BD0748074978440C180749A5
:103D800001442046FCF786FD01460020886020465D
:103D9000FCF796FD9ACDFF170CFEFFFF389B01E85C
:103DA00080B50F490F4A79441144C96899B18B68AD
:103DB00042119A4211D201EB8201C96859B18A6855
:103DC00000F01F00904208D201EB8000C06800287C
:103DD0001CBF406980BDFCF747FBFDF769F8C04692
:103DE0006ECDFF1798FEFFFF7047C0462DE9F04FDC
:103DF00081B006466148624978440C18FFF76CFFB1
:103E0000D4F808B18246BBF1000F04D000F0AE80B8
:103E1000DBF8108001E04FF00208BAF1000F00F06B
:103E2000A58050465946FFF76DFF002E00F09A809E
:103E30003068022100F44070B1EB102F0BD1BAF1C1
:103E4000000F00F0938030684FF60041C0F2FF0190
:103E50000840870A72E0002E00F084803078DFF896
:103E600028914FF0FF3700F0FE0004282ED145487E
:103E700078444844C06848B3444800214FF0FF37B5
:103E800078444844C06800E0013100286AD0826864
:103E900091421BDA8268914266D200EB81020023D4
:103EA000D26800E001331F2B0DDC002A5AD0956840
:103EB000AB4259D202EB8305ED68002D52D0AC68BD
:103EC000B442EFD12F69B7F1FF3FDDDD002F12DAE9
:103ED00001E000F0CFF800F0A5F80746002FF8D079
:103EE0002B48784448444269511C41613846314668
:103EF00000F0BCF83F693068002500F44070B5EB75
:103F0000102F0CD0000A012832D130684FF6004142
:103F1000C0F2FF010840810A384600F001F930780C
:103F200000F0FE00042808BF012525B93046022113
:103F30003A46FEF7CEFFBAF1000F17D05046594669
:103F4000FFF708FFBBF1000F1CBFDBF81000404576
:103F500004D0BBF1000F09D0CBF81080384601B077
:103F6000BDE8F08FFCF780FAFCF7A2FFFCF77CFAC3
:103F700002284FF00700FCF799F9C0461CCDFF1747
:103F8000F8FCFFFFA4CCFF1798FEFFFF94CCFF17AF
:103F900032CCFF1710B50028014618BF0121C1B16E
:103FA000D0B10168022201F44071B2EB112F07D1A8
:103FB00000684FF60041C0F2FF010840800A01E0AE
:103FC000FFF714FF00F00AF80446FFF70DFF204644
:103FD00010BD0720FCF76AF9FCF746FA80B50F49D7
:103FE0000F4A79441144C96899B18B6842119A42C9
:103FF00011D201EB8201C96859B18A6800F01F0033
:10400000904208D201EB8000C06810B100F0ACF81B
:1040100080BDFCF729FAFCF74BFFC04632CBFF17F7
:1040200098FEFFFF0F4810497844014408690028B2
:1040300004BF00207047D0F80CC0BFF35F8F51E879
:10404000042F824203D141E804C3002BF7D1BFF310
:104050005F8F8242EAD1C1690131C1610021C16033
:104060007047C046ECCAFF1798FEFFFF81604261AF
:104070007047C0462DE9F04F81B02148214978446E
:104080000844C06830B1204878440844C068A8B3E8
:10409000846800E000241D4E1D4820227E4400EB71
:1040A000060A1C4881195046FDF7B4FC81461B489E
:1040B0006401002509F10C0B064402E04BF8257061
:1040C00001351F2D0EDC5046314604EB050800F08B
:1040D00055F80746C7F8108000F066F8202DEDD39C
:1040E000FCF7E6FE0C48074978440C184946E0689E
:1040F00000F07EF8E06001B0BDE8F08FFCF7B4F9A5
:1041000096CAFF1798FEFFFF8CCAFF1778CAFF17E1
:104110000CFEFFFF489A01E82CCAFF17789A01E8C5
:1041200080B50F4A0F4B7A441A44D268A2B1936803
:104130004FEA601C9C4511D202EB8C02D2685AB146
:10414000936800F01F00984208D202EB8000C0681C
:1041500000281CBF416180BDFCF786F9FCF7A8FE72
:10416000EEC9FF1798FEFFFF80B550F8181F002911
:104170001CBF006880BD00F071F880BD70B50C46B2
:10418000204600F093FE064600F09AFE31460546B2
:1041900007F0B0F9002D1FBF0A20C5E9000428462A
:1041A00070BDFCF761F9C0460021104A8160816151
:1041B000016A013101620C497944114404E0BFF302
:1041C0005F8F634508BF7047D1F810C0C0F80CC0BE
:1041D000BFF35F8F51E8043F6345F0D141E804022B
:1041E000002AF7D1EBE7C0465CC9FF1798FEFFFF36
:1041F00010B50C4618B1214603F050FB10BD05491F
:104200000548064A7944084411440122FDF702FC9E
:10421000C46010BD10C9FF170CFEFFFF289F01E806
:1042200080B500F01FFE0A4A0A49BFF35F8F7A4447
:104230000A4452E8023F1BB942E80203002BF8D1BE
:104240000548BFF35F8F78440844806880BDC0464E
:10425000E6C8FF1798FEFFFFCEC8FF1710B504464B
:1042600000F010FEBFF35F8F54E8001F19B944E857
:1042700000010029F8D1BFF35F8F206810BD80B521
:1042800000281CBF0C3080BDFCF7EEF880B50C3860
:1042900007D08168014414300C31091A07F02AF95B
:1042A00080BDFCF7E1F880B50C3808D08168DD22CC
:1042B000014414300C31091A07F03EF980BDFCF7B7
:1042C000D3F8C0462DE9F04114460246B2F10C0580
:1042D00031D02F4657F8080F00F10C039C4214D838
:1042E0001E1BA0EB0408152E17D20846114600F03D
:1042F00029F828461421DD2207F01EF97EB1D5B138
:1043000028463146FEF7D6FD09E00C480C497844B2
:104310000844D0F81001BDE8F081C7F8008007EB31
:10432000080004301EBF0C21016010F1040F02D000
:104330004460BDE8F081FCF797F8C04606C8FF1757
:10434000F8FCFFFF80B5A1B1D1E9003C002B18BFFC
:10435000C3F804C0BCF1000F18BFCCF800304269AC
:10436000914208BF43618269914208BFC0F818C0FA
:1043700080BDFCF779F8C04680B5B0B10C4BDFF8D2
:1043800034C0082200287B446344C0E900230CD0D9
:104390000C398160084979446144FFF721FB20B161
:1043A00000210160FFF76BFF80BDFCF75DF8C046A0
:1043B0008EC7FF17A89A01E87EC7FF1710B50446FD
:1043C0006CB1E16804F11C00091AFFF7D5FF002861
:1043D000C4E905001EBF0021C0E9001110BDFCF7B3
:1043E00043F810B50446002C08BF10BD2046FFF767
:1043F0004DFF2468F7E710B50446002C08BF10BD38
:104400002046FFF750FF2468F7E7C0462DE9F0414A
:1044100005461148DFF83C800C466E69784408EB8D
:1044200000070BE0304629462246FFF74BFFD7F83E
:104430001011884218BFBDE8F0813668002EF1D116
:10444000034878444044D0F81001BDE8F081C046EC
:10445000D2C6FF17F8FCFFFFF8C6FF172DE9F04F93
:1044600081B00F460090002F00F0B3803846FEF771
:10447000FFFC044600980026406902E001680646F9
:104480000846002818BF8742F8D84EB1B6F10C058F
:1044900000F09F802846FEF7EBFC2844B84202D08B
:1044A0004FF0000A06E02846FEF7E2FC04444FF015
:1044B000010A2F4616B1D6F8009002E00098D0F815
:1044C0001490B9F1000F04D0A9F10C003919814200
:1044D00002D04FF0000B06E000287AD0FEF7C8FCAF
:1044E00004444FF0010BBAF1000F23D10098394674
:1044F00080688846804505D9B8F1040169D00A680A
:10450000022AF6D0B84515D21EB1B6F10C054FD12E
:104510005FE0009800F11C0550E00020BD42A7EBD1
:10452000050138BF0120A84588BF002000281CBF16
:104530000C442F46BBF1000F0CD100993819C96803
:1045400001E004300434884204D2002841D00268DB
:10455000022AF6D05AEA0B0014D0BBF1000F03D0A8
:1045600000984946FFF7EEFEBAF1000F0AD0002E80
:1045700018BFB6F10C002CD0A4F10C01816001B081
:10458000BDE8F08F132C0BD938462146FFF7F4FE17
:1045900001460098324600F01EF801B0BDE8F08FE9
:1045A000BFB138462146FEF785FC01B0BDE8F08F6B
:1045B0002846FEF75DFC054400E004354545ACD2D5
:1045C000002D06D005D0287800F0FE000228EFD19B
:1045D000F3E7FBF749FF80B51AB199B113680B6097
:1045E00003E079B143690B60416159B10B681BB1BC
:1045F000086838B1416000E08161002A4A6018BF54
:10460000116080BDFBF730FF80B500F001F880BD80
:104610000021C0E902110161704780B5531A302BA7
:1046200038BF80BDB1B100230B60C368C1E901315F
:10463000CA604FF428620A618268002A08BF81605C
:10464000C26812B1C2682AB11160C1600846FFF7A2
:10465000B5FE80BDFBF708FF10B58468002C08BFCD
:1046600010BD6069FFF7C7FE2468F7E72DE9F04F3A
:1046700081B080463548DFF8D8A00F4678445044D2
:10468000D0F80841002C02D05ED0266900E0022656
:104690003048DFF8C4B0214678445844FFF732FB75
:1046A000D8F81000C0B13946FFF7B0FE05462B48D8
:1046B00078445044D0F8100185420DD02B48214653
:1046C00078445844FFF746FB002C1CBF2069B042D9
:1046D00036D0CCB3266133E022480096D8F8086083
:1046E00078440AEB000900E03668C6B13046394626
:1046F000FFF78CFE0546D9F810018542F4D01A4820
:104700002146C8F8106078445844FFF723FBBCB139
:1047100000992069884213D0B4B1216110E010489B
:1047200078440AEB00015844D1F810512146FFF7B4
:1047300011FB2CB100992069884201D024B121617C
:10474000284601B0BDE8F08FFBF78EFE98C4FF1736
:10475000F8FCFFFF7CC4FF17B0FEFFFF64C4FF1727
:10476000F4C3FF1734C4FF170EC4FF1754C4FF1758
:104770002DE9F0410D46234906462348794401447A
:10478000D1F810118D4208BFBDE8F0811F4979446E
:104790000844D0F80841002C03D030D0D4F8108061
:1047A00001E04FF002081A481A4F21467844384475
:1047B000FFF7A8FAB66800E0366886B1D6E90201CC
:1047C0008D424FF0000138BF0121A84288BF00216F
:1047D0000029F1D030462946FFF740FEECE70E48AD
:1047E000214678443844FFF7B5FA002C1CBF2069F5
:1047F000404502D01CB1C4F81080BDE8F081FBF741
:1048000033FEC04698C3FF17F8FCFFFF86C3FF17AF
:1048100068C3FF17B0FEFFFF32C3FF1780B5014624
:104820000348044A7844104400F006F880BDC046AE
:10483000F0C2FF17844A01E880B50029084618BF76
:10484000103003D0C96804F0FFFF80BDFBF70CFEF9
:1048500080B50029084618BF103003D0C96805F09C
:104860000DF880BDFBF700FE80B582B00029084638
:1048700018BF103008D0C968DDF810C0CDF800C0EE
:1048800005F020F802B080BDFBF7EEFD10B584B056
:104890000029084618BF103061B1DDE9064EC9682D
:1048A000DDF820C0CDE9004ECDF808C005F032F8A3
:1048B00004B010BDFBF7D8FD80B500F001F880BD55
:1048C00010B50028BEBF4FF0FF304FF0FF3110BDD4
:1048D0004FF47A7100FB01F400F006F8001941F181
:1048E000000110BD7047C04680B5034803497844B5
:1048F000084400F005F880BD26C2FF17C8FEFFFF80
:10490000F0B581B00446012004F0D2FED4E903677B
:10491000054605F0FBF80146606903F011FF044607
:10492000284604F0C5FE301947F1000101B0F0BD82
:10493000054806494FF0FF32784408440021C0E999
:104940001F22C0E921117047DCC1FF17F8FCFFFFEF
:10495000704710B58468002C08BF10BD6069FFF770
:1049600040FD2468F7E7C046F0B581B01D4F00F167
:1049700008041D4D14F00300C0F1040018BF0444E6
:104980007F442146E819FFF771FE184EF119D1F85E
:10499000101188420AD1164F21467F44E819FFF7CB
:1049A00065FEF119D1F8101188420AD000281FBF06
:1049B000016841F00701016001B018BFF0BDFBF7CD
:1049C00053FD0C480C4978440C180C49014420460E
:1049D000FBF760FF054600F013F8A8602046294663
:1049E000FBF76EFF94C1FF1768FEFFFFF8FCFFFFA7
:1049F0007AC1FF174EC1FF170CFEFFFFD89A01E8DE
:104A000080B506490648074A794408441144FBF733
:104A100041FF03218160FCF7FDFA80BD0CC1FF1747
:104A20000CFEFFFF889C01E880B5014641B10020E3
:104A3000054A0860034878441044FFF799FE80BD9A
:104A4000FBF712FDDEC0FF1768FEFFFF80B5FEF723
:104A5000A7FA80BD10B50446062004F029FE2046C2
:104A6000FEF770FB80B5FDF70BFF1320FDF728FF65
:104A70001220FBF71BFC806B704780B51120FBF701
:104A800015FC80B5FFF7CDF880BDC046F0B581B00C
:104A9000114E12487E448419114881192046FBF7B3
:104AA000F9FE0546FDF778FE0E4887190E48C7F84F
:104AB00090508519D7F88C001F28C4BF01B0F0BDF5
:104AC00020462946FBF7E6FE064600F061FB30462D
:104AD00000F07AFBEEE7C04680C0FF170CFEFFFF38
:104AE000C89801E8F8FCFFFF989B01E8F0B581B099
:104AF000214E224803227E448419214885192046EC
:104B00002946FCF787FF1F4903223144C1601E4933
:104B1000314401611D49314441611D498F192946C4
:104B2000C7F804012046FCF775FF1A4905223144F5
:104B3000C160194931440161184931444161C7F8E4
:104B4000FC0020462946FCF765FF15493144C16049
:104B500014493144016114493144416113493144DC
:104B6000816113493144C161C7F8F80011483044EC
:104B7000C7F8000101B0F0BD1EC0FF170CFEFFFF1B
:104B8000489D01E8E81801E8081901E8281901E83A
:104B9000F8FCFFFF481901E8681901E8881901E8E5
:104BA000A81901E8C81901E8E81901E8081A01E89C
:104BB000281A01E8481A01E8B0B5094909480B4A22
:104BC000794445180020C5F8F4000748084411440A
:104BD000FBF760FE044602F08DFCC5F8F440B0BD62
:104BE00054BFFF17F8FCFFFF0CFEFFFF989E01E883
:104BF0000448054978440844002180F85010C164F5
:104C00007047C04620BFFF17F8FCFFFFF0B581B02A
:104C10000B4E0C487E4484190B4881192046FBF743
:104C200039FE054602F032FD084887190848BD657F
:104C300081192046FBF72EFEF86501B0F0BDC04695
:104C400000BFFF170CFEFFFFB8A201E8F8FCFFFF52
:104C5000E8A201E8F0B581B00B4E0C487E448419FF
:104C60000B4881192046FBF715FE054602F00EFDA4
:104C70000848871908483D6681192046FBF70AFE57
:104C8000786601B0F0BDC046B8BEFF170CFEFFFF4E
:104C9000B8A201E8F8FCFFFFE8A201E8F0B581B096
:104CA0000B4E0C487E4484190B4881192046FBF7B3
:104CB000F1FD054602F0EAFC084887190848BD6680
:104CC00081192046FBF7E6FDF86601B0F0BDC0464D
:104CD00070BEFF170CFEFFFFB8A201E8F8FCFFFF53
:104CE000E8A201E8B0B5074D074808497D442844CB
:104CF0002944FBF7CFFD044604F078FA0448284421
:104D00000467B0BD28BEFF170CFEFFFF28A201E814
:104D1000F8FCFFFF10B598B100F01AF8002818BF92
:104D200010BD0848084978440C1808490144204639
:104D3000FBF7B0FD0146002088602046FBF7C0FD70
:104D4000002010BDEEBDFF170CFEFFFF089B01E821
:104D500010B50446002C02BF0024204610BD1CBF25
:104D6000606800280CD00749074A006A794411445A
:104D7000FEF756FEC0B2002808BF0446204610BD0C
:104D8000FBF772FBA8BDFF17089E01E870B505464A
:104D90001848194978440844406AB0B1046AC560AB
:104DA0009CB12046FDF740FCFDF71CFB061F30467A
:104DB00000F024F800281CBF8168002913D0002DC2
:104DC00003D01CBF8068002801D1FBF74DFB6A6847
:104DD0008068314600F020F828B11120FDF770FD01
:104DE0000E20FBF763FA2046FDF784FC0220FBF758
:104DF0005DFAC04680BDFF1718FEFFFF80B504496D
:104E0000044A79441144D1F8DC1002F046FE80BD1A
:104E100012BDFF17F8FCFFFF2DE9F0410646904652
:104E20000D46D6B106F10C004FF0FF370CE02946D5
:104E3000424600F10C0402F04FFE014620460029D4
:104E40001CBF0846BDE8F081B16801378F4204DA23
:104E5000B1688F42EBD3FCF72BF800210846BDE880
:104E6000F081C04680B504490448054A79440844A5
:104E70001144FBF70FFD80BDA8BCFF170CFEFFFF20
:104E8000289C01E810B506490648074A79440844B9
:104E90001144FBF7FFFC044600F048F8204610BD23
:104EA00088BCFF170CFEFFFF589C01E880B5002866
:104EB0001FBF80680B3020F0030080BDFBF7D4FAE1
:104EC000F0B581B00E4F0F4D044621467F44E819DE
:104ED000FFF7CCFB0C4EF119D1F8101188420AD122
:104EE0000A4F21467F44E819FFF7C0FBF119D1F8BA
:104EF0001011884201D001B0F0BD0A20FBF7D6F9AD
:104F000048BCFF1768FEFFFFF8FCFFFF30BCFF172F
:104F100080B500281FBFD0E9022000FB01200B3024
:104F200020F0030018BF80BDFBF79EFA70B50B4E52
:104F300004460B487E4485190A4881192846FBF728
:104F4000A9FC0461A060084881192846FBF7A2FC6F
:104F50000546FDF721FCE56070BDC046E0BBFF17CC
:104F60000CFEFFFF689B01E8C89801E82DE9F043BB
:104F700081B081462A482B4978440844D0F80881FA
:104F8000B8F1000F45D0D9F8100040453CD040465C
:104F9000494600F049F80646012004F089FB054621
:104FA000E6B3B06900F050F810F0FF0F06D0D9F862
:104FB000100030B1D9F81000404507D00024002778
:104FC0000BE0C9F810800124012706E0D9F814008D
:104FD000012700240130C9F81400284604F068FBBA
:104FE0001CB140464946FDF770FE4FB9304600F00F
:104FF00036F810F0FF0FCFD0B06900F054F8074634
:105000003046FDF7F9FA05E0D9F814000130C9F887
:1050100014000127384601B0BDE8F083FBF724FAFD
:105020009CBBFF17F8FCFFFF80B500281FBFD0F81E
:1050300048C04FF0000E0CF1080787E80F401CBF76
:10504000604680BDFBF710FA002804BF01207047BE
:1050500090F820100020002908BF01207047B0B54B
:105060000446A06958B1A06938B100F04FF9A069B1
:1050700000281CBF90F82000B0BDFBF7F5F904F143
:1050800008030FCB00F0CAF8A061012004F010FB68
:105090000546A0690028F0D000F025F9284604F064
:1050A00007FB0020B0BD80B500281CBF90F8210090
:1050B00080BDFBF7D9F9C04670B504461F482049AA
:1050C00078440844D0F80801002808BF70BD216961
:1050D000814224D160690128A1BF60690138606103
:1050E00070BD2046FDF70EFE012004F0E1FA0546F2
:1050F000E068D0E902219068FDF76AFD00284FF0D2
:1051000000064FF0000118BF06692846216104F02F
:10511000CFFA1EB13046FDF7A7FD70BD70BD09483E
:10512000094978440C18094901442046FBF7B2FBB1
:105130000146002088602046FBF7C2FB54BAFF17E7
:10514000F8FCFFFFF2B9FF170CFEFFFF389B01E8E8
:1051500080B550B10649074A79441144D1E91F236B
:105160004168C9698969884780BDFBF77DF9C046F8
:10517000BCB9FF17F8FCFFFF80B5FDF76EFC80BDE2
:1051800080B510B1FDF7F6FC80BDFBF76DF9C046A8
:1051900070B5044609480A4978440D1809490E18A3
:1051A00028463146FBF776FB0461A060284631466D
:1051B000FBF770FB0461E06070BDC0467CB9FF176F
:1051C0000CFEFFFFC89B01E810B50446FDF738FC54
:1051D000204600F0A9F80E490E4879440144D1F860
:1051E0008C101F29C8BF10BD002184F8201084F83E
:1051F0002110094979440844D0F88C100131C0F8D5
:105200008C10D0F89000E168C068FDF726FC10BD56
:105210003AB9FF17F8FCFFFF20B9FF172DE9F04757
:1052200007462248224C984691468A4678442518DB
:10523000FDF7F2FFD5F88C00012818DB1D487844F3
:105240002618012004F034FA0546D6F89000D0E97B
:105250000221906800F038F858B117497944214488
:105260000469D1F88C20013AC1F88C2002E00024B6
:1052700003E00024284604F01BFA64B90F491048E3
:10528000104A794408441144FBF704FB04465CB11E
:105290002046FFF77DFF002C1FBFC4E9047AC4E954
:1052A00006982046BDE8F087FBF7DEF8E8B8FF1760
:1052B000F8FCFFFFD6B8FF17B8B8FF1792B8FF1772
:1052C0000CFEFFFF989B01E810B504468C4202BF1C
:1052D0000024204610BD24B12046FDF74BFC20469B
:1052E00010BDFBF7C1F810B50446FDF7A9FB6069D6
:1052F00050B1C068E168C068FFF73EFF206918B18F
:10530000A168FDF73DFB10BDFBF7AEF880B5014687
:105310000348044A78441044FDF78BFF80BDC04623
:1053200000B8FF1718FEFFFF10B50446FDF788FB15
:10533000A068806820B1206970B1A068FDF7E8FB23
:10534000E068806820B1606930B1E068FFF718FF5D
:105350000020C4E9040010BDFBF786F880B504F016
:1053600099F96FF35F2080BD80B5012004F0A0F9AA
:10537000002004F0D1F940F2112004F0B7F96FF0E9
:105380000C00FEF77DF86FF00A00FEF779F86FF079
:105390000B00FEF775F86FF00900FEF771F800F0EA
:1053A00001F880BD80B504F095F920F0804004F04C
:1053B00097F980BDB0B50C460546FFF7B7FD2C61E7
:1053C000B0BDC046F0B581B00446344834491D46EE
:1053D000164678440844D0F80871002F384618BFA4
:1053E0000120002854D02069002854D0007BA8B1A7
:1053F000012004F05DF92169002947D0097B59B1EA
:105400002169002942D0096919B92169F1B3002243
:105410000A7304F04DF933E004F04AF938462146A6
:1054200032462B46FFF700FE0546012004F040F906
:1054300006464DB3A869FFF707FE10F0FF0F03D033
:10544000206908B3007B80B9304604F031F9284662
:10545000FFF705FE10F0FF0FE7D0A869FFF723FE66
:1054600004462846FDF7C8F80BE0206960B10069E2
:1054700018B9206940B1002101732846FDF7BCF836
:105480000124204601B0F0BDFAF7EEFFFAF7ECFF79
:105490000420FAF70BFFFAF7E7FFC04642B7FF1701
:1054A000F8FCFFFFF0B581B00446002702E030466B
:1054B000FDF7DAFB012004F0FBF805462069F8B19E
:1054C000007BC0B1E068D0E902219068FDF780FB65
:1054D00088B106690121FDF7B9FB206980B1006937
:1054E00010B9206960B10773284604F0E1F8002E76
:1054F000DDD1FAF7B9FF284604F0DAF801B0F0BDC3
:10550000FAF7B2FF704770470020704780B50A2055
:10551000FAF7CCFE80B51120FDF7D2F90E20FAF78C
:10552000C5FEC04680B50B490B4A79441144D1F8F9
:10553000081100291CBFC969002908D01FBF8A684B
:105540008260CA68C2601EBF0969016180BDFAF746
:105550008BFFC046EAB5FF17F8FCFFFFF0B581B03E
:105560000C4617460546002C3DD03CD06068C0690B
:105570008169204688470646AFB3B9683846FBF7CD
:1055800053FA20F007006FF0020205F10803A0F1C2
:10559000480183E807003846B968FBF745FAEA682E
:1055A000C1170023801A4FF0000261F100010029A9
:1055B000C8BF0123472888BF0122002918BF1A4607
:1055C0009AB1E86800281FBFE1684FF08072C0E917
:1055D00010126FF002011FBF01600221416086625C
:1055E0001CBF01B0F0BDFAF73FFF1320FAF75EFED3
:1055F000B0B5084D08487D44441908484119204673
:10560000FBF748F901460648284488602046FBF726
:1056100057F9C0461EB5FF170CFEFFFF389B01E887
:10562000881801E8C0687047C1607047806870479B
:105630000069704780B5FCF7D5FE80BD704780B526
:105640001120FDF73DF90E20FAF730FE70B50D463A
:10565000214904462148224A79440844114433220E
:10566000FCF7D8F960610A20002DA06002DB002061
:10567000207402E001206D42207460690A212A46EC
:105680000023002600F02EF8C0F10A01E16008E0D6
:1056900002EB400302EB46020139013001369B89DF
:1056A0009381012909DB62699AB1936898420ED20D
:1056B0007AB193689E42EBD309E0606948B1816892
:1056C0008E423FBF00EB46000021818170BDFBF799
:1056D000EFFBFAF7C9FEC046BCB4FF170CFEFFFF94
:1056E000E89601E8B0B54CF6CD4CA3F1010ECCF62E
:1056F000CC4C0DE0E40800EB4101AEF1010E04EBEF
:105700008405A2EB450242F030024A811946224646
:10571000BEF1FF3F03DC002A04BF0846B0BDA2FB78
:105720000C3428B185684B1EAB42E3D3FBF7C0FBBA
:10573000FAF79AFE70B50D461D4904461D481E4AEB
:105740007944084411443322FCF764F960610A206B
:1057500000260A212A460023A06026746069FFF70C
:10576000C1FFC0F10A01E16008E002EB400302EB77
:1057700046020139013001369B899381012909DBF9
:1057800062699AB1936898420ED27AB193689E4248
:10579000EBD309E0606948B181688E423FBF00EBFE
:1057A00046000021818170BDFBF782FBFAF75CFEA9
:1057B000D4B3FF170CFEFFFFE89601E880B540B1B7
:1057C000C2689142A4BF002080BDFBF7EBFD80B210
:1057D00080BDFAF749FEC0462DE9F04F85B08046FE
:1057E0000C464FF6DF701D4693462040A0F1450160
:1057F000022912D001294DD1BBF1000F04DA002D8E
:1058000000F04981D5F858B0D8F80C000028C0F253
:105810009480D8F80C00584490E0BBF1010FB8BF59
:10582000D8F808B01BF169000490002D00F0338116
:10583000A149A248A24A05F1140779440844114439
:105840008CCFD7F80CA0D668D3F80C90FBF722F8D1
:105850000746002F00F01F81049909EB0600A4B24F
:1058600001EB400000EB0A013846FCF7C7F940465F
:10587000594600F017FD98F8100018B1A96938468C
:1058800000F084FDA31E404639465A46009500F0BC
:10589000B5FDF9E0E9BBBBF1000FB8BF4FF0060B57
:1058A0000BF1010A1AF169000490002D00F0F38059
:1058B00085498248824A05F1140779440844114415
:1058C0008CCFD7F80CB0D668D3F80C90FAF7E2FF7B
:1058D0000746002F00F0DF80049909EB060001EB7A
:1058E000400000EB0B013846FCF788F94046514672
:1058F00000F0D8FC98F8100018B1A969384600F0FB
:1059000045FD4046394652462346009500F062FF69
:10591000BAE04E2846D1BBF1FF3F04DC002D00F079
:10592000BA80D5F858B0D8F80C000028C0F28080B2
:10593000D8F80C0000EB0B0A7CE0002010F169099C
:10594000002D00F0A8805F495C485D4A7944084416
:105950001144D5E90623DE68D468FAF79BFF0746B1
:10596000002F00F0988009EB040081193846FCF7FD
:1059700045F9D8F80C0000EB0B01404600F092FC12
:1059800098F8100018B1A969384600F0FFFCE869E2
:1059900000215A460023CDE900014046394600F077
:1059A000C1FD71E0502878D1BBF1000F03DA002D62
:1059B00071D0D5F874B0D8F80C00023000EB0B04AD
:1059C0000028C8F80C00B8BF002414F16900049046
:1059D000002D60D03D493948394A79440844114482
:1059E000AA69D5E91037AE6CF668D7F80C90D2F8F2
:1059F0000CA00396DE68FAF74DFF0746002F4AD049
:105A000004980399504409FB04003044014438468B
:105A1000FCF7F4F8D8F80C0000EB0B01404600F05E
:105A200041FC404639465A462B4600F093FF2BE096
:105A30004FF0000A1AF16900049065B324491F4829
:105A40001F4A05F118077944084411448CCFDE68D9
:105A5000FC68D2F80C90FAF71DFF0746DFB10498F6
:105A6000484404FB0A0081193846FCF7C7F8D8F807
:105A70000C0000EB0B01404600F014FC4046394698
:105A80005A462B4600F00AFF2FB13846FCF792F831
:105A900005B0BDE8F08FFAF7E7FC0E4807497844F7
:105AA0000C180D4901442046FAF7F4FE0146002087
:105AB00088602046FAF704FFDAB2FF170CFEFFFFFA
:105AC000189701E8C8B1FF175AB2FF173AB1FF178C
:105AD000CEB0FF1776B0FF17E89C01E8F0B581B0B3
